:1000000000300020C1000000470900000F0500007B
:1000100000000000000000000000000000000000E0
:10002000000000000000000000000000191C00009B
:10003000000000000000000013050000311B00005C
:100040001705000017050000170500001705000040
:100050001705000017050000170500001705000030
:100060001705000017050000170500001705000020
:100070001705000017050000170500001705000010
:100080001705000017050000170500001705000000
:1000900017050000170500001705000017050000F0
:1000A00017050000170500001705000017050000E0
:1000B00017050000170500001705000017050000D0
:1000C0000749084A084B9B1A05DD002408591051BE
:1000D00004349C42FADB054880470548004700008D
:1000E000D0610000C0F0FF1F54F1FF1F290700007E
:0400F00065040000A3
:10040000FFFFFFFFFFFFFFFFFFFFFFFFFEFFFFFFFD
:1004100010B5064C2378002B07D1054B002B02D0DA
:10042000044800E000BF0123237010BD54F1FF1FFA
:1004300000000000C4610000044B10B5002B03D085
:100440000349044800E000BF10BDC04600000000A2
:1004500058F1FF1FC4610000402292029A1A92468E
:100460007047C046174B002B00D1134B9D46FFF73A
:10047000F3FF00218B460F461348144A121A04F06A
:1004800094FD0E4B002B00D098470D4B002B00D055
:1004900098470020002104000D000D48002802D0DC
:1004A0000C4800E000BF04F045FD2000290001F0E9
:1004B000C7F804F045FBC04600000800000000003B
:1004C000930600000030002054F1FF1F00F3FF1FCF
:1004D00000000000000000000A4AF0B5936895682B
:1004E0001C00002D0AD11D00074CC035E61A1F68FC
:1004F000F7500433AB42FAD19460034C10308000C3
:100500000151F0BD00ED00E000F0FF1FFEE7FEE747
:10051000FEE7FEE7FEE7FEE7084B10B51B68002B81
:100520000AD1074C08212000042200F001FD962189
:100530002000890100F016FC10BDC0467CF2FF1FB0
:10054000E8F2FF1F7047000010B50400022801DC2C
:10055000002010BD04F0EEFA092300220360033CE2
:10056000084BA400E058E250904208D003681B6991
:100570009847041EECDA04F0DDFA644204600120BE
:100580004042E6E770F1FF1F70B506000D00140051
:1005900004F0D0FA09230360022E0EDC124B1B6814
:1005A000002B01D1FFF7B8FF2E19B54216D02978DC
:1005B0000E4800F096FD0135F7E7033E0C4BB60000
:1005C000F05800280CD003682200DB682900984707
:1005D000041E03DA04F0AEFA63420360200070BD2B
:1005E00001246442FAE7C0467CF2FF1FE8F2FF1FD5
:1005F00070F1FF1F70B504000D00160004F09AFAA8
:1006000009230360022C0CDC104B1B68002B01D16A
:10061000FFF782FF0E4800F04DFD012428702000F6
:1006200070BD033C0B4BA400E05800280BD00368BE
:1006300032009B6829009847041EF0DA04F07AFA29
:1006400063420360EBE701246442E8E77CF2FF1FAA
:10065000E8F2FF1F70F1FF1F70B504000D001600D7
:1006600004F068FA092303600020022C0ADD033C31
:10067000064BA400E058002805D003683200DB696F
:100680002900984770BD01204042FBE770F1FF1F31
:10069000704710B5FFF756FFFFF7FAFF10BD0000D7
:1006A0000C4910B50B681818EFF30882904205D377
:1006B0000C220120084B40421A6010BD074A146802
:1006C000002C04D0064A126812199042F0D2086039
:1006D0001800F2E7C0F0FF1FFCF2FF1F70F2FF1FCF
:1006E00074F2FF1F70B50A4C05002368986804F087
:1006F00009FB2368D86804F005FB01F0E3FB002840
:1007000001D001F0E3FB002D01D000F0B5F8FEE7C9
:10071000E4F0FF1F7047704710B5FFF7FBFF10BDF7
:1007200010B5FFF7F8FF10BD882200201F4B5201C3
:1007300010B5985080221E4992005C5822435A50AE
:100740001C491D4A1D4C99501D4B996C21409964C0
:10075000DA6C1F212240DA6489221A4B1A701A4B74
:10076000653A5A7076321A70DA780A40DA700122E5
:100770001A7158710F3299791142FCD10C219A7972
:100780000A40082AFBD10C2138325A719A790A4062
:10079000082AFBD1383299791142FCD01A220C2157
:1007A0001A709A790A400C2AFBD110BD00700440DF
:1007B000381000000000011044100000FFF8FFFE98
:1007C00000900440005006400040064010B5040070
:1007D000431C04D115220649064801F0A5FA200061
:1007E000012100F0B7F801206406E40EA04010BD1E
:1007F000645900005159000070B505000C002980B3
:100800004B1C0FD00800FFF7E1FF074B240BE41847
:10081000A401231DEB6004332B611434083368609A
:100820006B61AC6070BDC046C03FE00310B50023F3
:10083000C05E00F0BDF810BD0022835E70B50400FC
:100840000D00013304D1332209490A4801F06CFA42
:10085000002D02D0012D06D070BDA268616813681A
:100860008B431360F8E7A268616813680B43F8E7ED
:10087000645900004C59000010B588B001F0C0FA6E
:10088000134902A801F021FA962402AB00229B5ED4
:10089000013304D124220F490F4801F045FA039A8D
:1008A000059B20001A60019201F005FB02AB0022BB
:1008B0009B5E013304D124220649074801F034FA33
:1008C000039A069B20001A60019201F0F4FADCE71B
:1008D00048100000CD5900004C59000070B50D00C3
:1008E0000400A0B001F08CFA2B00220080216846A1
:1008F00004F018FE051E03DC01F0B0FA20B070BD54
:10090000094B0A4E1B68002B04D104220821300039
:1009100000F00EFB00246B463000195D013400F03E
:10092000E0FBA542F7D1E7E77CF2FF1FE8F2FF1FEB
:100930000FB407B504A901C90191FFF7CFFF03B0B8
:1009400008BC04B018477FB51021684601F0A3F930
:1009500007B000BDF8B505000C00431C04D11422FB
:100960000D490E4801F0E0F9280B07000123093773
:10097000BB400B490B4A24028E5833438B500A4B21
:100980000A4AC0187C2300031D4040190368134025
:100990001C430460F8BDC046E05C000051590000F3
:1009A000007004403810000049000400FFF8FFFF09
:1009B00070B504000D00431C04D1212205490648EE
:1009C00001F0B2F9054BE418032321689943294348
:1009D000216070BDE05C00005159000000900440AF
:1009E0000C4A0D4B10B598580C4A000F1268013094
:1009F00050430B4A51790B4A490604D499580A4C82
:100A00002140995010BD80219C58490221439950A2
:100A10004008F7E74410000000700440C4F0FF1FD6
:100A20000040064004100000FFFFFEFF70B50C1CE4
:100A300005000021201C01F057FC002818D1FE21E0
:100A4000201C890501F064FC002801D0FE24A405C7
:100A50002B68AE681868013002F0B6F9211C01F06D
:100A60006BFE01F069FC00226B6830601A6070BD9B
:100A70000024EDE7030082681B6870B510681C68ED
:100A800002F0A2F9051C601C02F09EF9011C281C52
:100A900001F088FCFE218905041C01F039FC0028C6
:100AA00001D0FE24A405201C70BD0000F8B50F0085
:100AB0000400FFF7DFFF051C380002F03FF9074B89
:100AC0002668196801F038FE01F036FC0138306004
:100AD000291C2000FFF7AAFFF8BDC04678F2FF1FCF
:100AE00010B50400081C054901F026FE02F006F9C5
:100AF00001002000FFF7DAFF10BDC0460024744952
:100B0000F0B585B0009106006F49009801F058F9E2
:100B10006B4601909B880293029A6C4B9A4204D1D7
:100B20001D226B496B4801F0FFF86B4B6A4D18783A
:100B30003F2398430390694C694F67D1FFF750FFFB
:100B4000002863D08023E2595B0413433F22E35122
:100B50002B780398934301D1FFF742FF02F034F959
:100B6000604901F01FFC0025071CFE21381C890587
:100B700001F0CEFB002808D0FC21381C890501F0CB
:100B8000DBFD0135071C072DEFD1574B01211F60FD
:100B9000029B564F1B0A02936B461A79E3599C46F7
:100BA000009B180B0B000930834018006346184364
:100BB00018239C46029BE0519C44634699404C4854
:100BC0004C4B27580F4302992750CB180821282057
:100BD0000D43511C02321B03C900D20059189A1848
:100BE0001D604860B2601A000433083232607360DE
:100BF00030004149FFF75AFF30000021FFF716FF90
:100C00003149009801F0A2F805B0F0BD8023E25907
:100C10009B0413433F22E351384BE058384B000FFD
:100C20001B68013058432B789343802B96D02B7848
:100C3000934344D16B790132134037D1AA79D2065C
:100C40003FD4012230212B786F789B065B0F9A40AE
:100C50000F4203D0FF2352015B011A401F21EB78A2
:100C60008B43602B19D007D8202B0ED0402B12D0ED
:100C7000002B19D1A02106E0A02B11D0C02B11D040
:100C8000802B11D1B721890001E0A021C900504378
:100C900001F04EFA62E7F021F8E7A0210901F6E73A
:100CA000B721F3E71749F2E71749F0E71F222B793D
:100CB000697913400133114058431831E8E70020A7
:100CC0004CE718004AE7C0464C5A0000FFFF0000FE
:100CD000475D0000B25D0000004006400070044027
:100CE000041000000024744978F2FF1F381000003F
:100CF0003C10000038000400204E000044100000AA
:100D0000C4F0FF1F95080000710B00003F21002078
:100D10000E4A10B513788B4383420FD10C490D4B0B
:100D200058580D49000F09680130484351790B4A62
:100D3000490604D499580A4C2140995010BD80218D
:100D40009C584902214399504008F7E7004006406B
:100D50004410000000700440C4F0FF1F04100000A5
:100D6000FFFFFEFFF7B50D000C2103680600DC78DD
:100D70000C400194DA788A43DA70414A934200D0F9
:100D800073E0FFF7C3FF002814D0FFF7BFFF29016E
:100D900001F0CEF91F253268030A11782B40A943D0
:100DA0000B431370C0B253785070D378019C1C432E
:100DB000D470F7BD334B344AD758344B3F0F1A68C1
:100DC0003F2301375743324A9C4611789943130019
:100DD000802953D064461178A143D8D1517949066E
:100DE0003AD49279D206D2D419785A7889069446A0
:100DF0000122490F8A4030206146014203D0FF2181
:100E0000520149010A401F21DB788B43602B1AD025
:100E100007D8202B0ED0402B13D0002B1AD1A021A5
:100E200006E0A02B12D0C02B12D0802B12D1B721FC
:100E3000890001E0A021C9007A43100001F078F98F
:100E4000A5E7F021F7E7A0210901F5E7B721F2E7CF
:100E50001049F1E71049EFE71F2310795179184045
:100E60000130194078431831E8E7064B064AD1585B
:100E7000064B4903490F01311868DFE7380086E760
:100E800000A006404410000000700440C4F0FF1FA2
:100E90000040064095080000710B0000F7B5013BCB
:100EA0000700019115000093012B04D9A6221C49CB
:100EB0001C4800F039FF022D04D9A72218491A480E
:100EC00000F032FF019B082B04D0A82214491748D8
:100ED00000F02AFF0C203A68D178D3780140834390
:100EE000D370012D15D0002D13D0022D14D0202049
:100EF00064002643F6B29670137883431370009B08
:100F000010785B010343DBB21370D3781943D170BF
:100F1000F7BD2E002C00EAE700260124E7E7C046D3
:100F2000C55D00003D5E0000625E0000AC5E00003A
:100F3000F8B50E0004004D493000170000F040FFE6
:100F40004B490500380000F03BFF0100280000F08D
:100F500019FF0500431C04D141224649464800F0D0
:100F6000E3FE464B25609D4200D16CE0444B9D4220
:100F700000D170E0434B9D4210D1FFF7C7FE424BBA
:100F8000424A00285BD080219858C90401439950F7
:100F900080223F49D200585802435A500C212368FE
:100FA000DA788A43DA700822D9780A43DA70402264
:100FB00019791142FCD00C21DA788A43DA702F4B70
:100FC0009D424ED02E4B9D424DD02E4B9D4201D185
:100FD00000236360962120008901FFF7C3FE0123EF
:100FE000002208212000FFF759FF2049300000F0BF
:100FF000ADFE1F49380000F0A9FE731C08D008237D
:1010000022683000D1780B43D3700221FFF7D0FC67
:101010007B1C08D0042322683800D1780B43D3709E
:101020000221FFF7C5FC174B9D4207D10122194B46
:1010300021001A601848073203F0AEFFF8BD802186
:1010400098580905A2E780230F49114A1B018858C7
:1010500003438B50A2E780230B490D4A5B0188585C
:10106000F6E70123B5E70223B3E7C046745C00004E
:10107000085C0000C55D0000BB5E000000B00640DB
:1010800000C0064000A006400070044004100000AC
:10109000341000007CF2FF1FE8F2FF1F08220368F3
:1010A0001979114202D019790A431A71187920234B
:1010B0001840704710B504002000FFF7EFFF00282C
:1010C000FAD02368D879C0B210BD08220368197914
:1010D000114202D019790A431A7118797F23984373
:1010E000704770B505000C002800FFF7EEFF0028E0
:1010F000FAD02B68E4B2DC7170BD00000022064B10
:101100001A609860196840320A431A60012219680F
:101110000A431A607047C0460000044080230D4A0D
:1011200070B511680C4D0B4313602C68002C05D072
:101130000A48013CFFF7E2FF2C6070BD084D28888B
:10114000002803D0FFF7DAFF2C80F6E700F0C2FD9D
:10115000F3E7C0460000044084F2FF1FFFFF0000D9
:1011600088F2FF1FF7B5684B1A680192002A00D079
:101170008FE001241C608023644E654A1B04B15833
:10118000644D0B43B350019A634B644F1A600123C3
:101190005B426B610533EB61EB692343EB61604BB1
:1011A0003868F1580723090C1940091900F0C0FFED
:1011B0005C4B5D49C01800F0BBFF5C4A01386860B9
:1011C000EC60B3585A4D2343B350019B1C202B6055
:1011D0005849FFF781F98022574B52051A603F2288
:1011E0004F4B3F68F058554E000F33780019474376
:1011F0009343802B33D03378934364D173795B0668
:1012000053D4B379DB065ED43378383ADB0871788F
:10121000134029329C40114203D0FF2364015B013B
:101220001C401F22F3789343602B35D007D8202B26
:101230000ED0402B2ED0002B35D1A02106E0A02BC4
:101240002DD0C02B2DD0802B2DD1B721890001E0CE
:10125000A021C9002000784300F06AFF0700002F9A
:1012600031D03149380000F0E9FF0C1E2BD12E4956
:10127000380000F05DFF0723012842D02100012340
:10128000400801281AD17823C9001940753B194339
:101290006960F7BDF021DCE7A0210901DAE7B72199
:1012A000D7E72749D6E72749D4E71F233079717953
:1012B00018400130194078431831CDE7184202D167
:1012C00001314008DDE702233278134333700123F4
:1012D00072781343737000230E226B60337A1340CD
:1012E0000AD0022B0CD0337A934333720423327A20
:1012F0001A4332726A6801E008236A68134300E007
:101300006B686B60C5E7C04680F2FF1F0070044049
:101310003C100000FC70034000700340C4F0FF1F4D
:101320004410000020A1070040420F0038100000C8
:10133000000004401D11000000E100E000400640F4
:1013400095080000710B0000054B10B51B68002BC1
:1013500001D1FFF707FF034B9869C04310BDC0469A
:1013600080F2FF1FFC7003404021024A13688B4348
:1013700013607047000004407047000070B504001F
:10138000FFF7E2FF201A002800DC0120084D094E7B
:10139000041480B22C603080002C05D00648013C3B
:1013A000FFF7ACFE2C6070BDFFF7A8FE3480FAE7B3
:1013B00084F2FF1F88F2FF1FFFFF000080B582B09C
:1013C00000AF78600A00BB1C1A8000F019FD7A6833
:1013D000BB1C00215B5E19001000FFF791FB00F0C1
:1013E0003DFD7B681800BD4602B080BD80B582B06F
:1013F00000AF7860396000F003FD7B683A68111C2B
:101400001800FFF713FB00F029FDC046BD4602B0EF
:1014100080BD80B582B000AF7860396000F0F0FC2C
:101420007B683A68111C1800FFF75AFB00F016FDA4
:10143000C046BD4602B080BD90B583B000AF040089
:1014400008001100FB1D221C1A70BB1D021C1A7023
:101450007B1D0A1C1A70FB1D1B78180003F094FA00
:101460000022274B02F056F802000B00002025490D
:1014700002F0C2FE02000B001000190003F0B4FAE3
:10148000021C214B111C1800FFF7B0FFBB1D1B787D
:10149000180003F079FA0022194B02F03BF8020021
:1014A0000B000020174902F0A7FE02000B001000FD
:1014B000190003F099FA021C144B111C1800FFF7D5
:1014C00095FF7B1D1B78180003F05EFA00220C4B81
:1014D00002F020F802000B0000200A4902F08CFE06
:1014E00002000B001000190003F07EFA021C084BEA
:1014F000111C1800FFF77AFFC046BD4603B090BD2F
:1015000000E06F400000F03F8CF2FF1F98F2FF1FD9
:10151000A4F2FF1F80B500AF144A154B111C180030
:10152000FFF777FF114A134B111C1800FFF771FFEB
:101530000E4A114B111C1800FFF76BFFFE2292059B
:101540000B4B111C1800FFF751FFFE229205094BAF
:10155000111C1800FFF74AFFFE229205064B111CD2
:101560001800FFF743FFC046BD4680BDD2B27B39AD
:101570008CF2FF1F98F2FF1FA4F2FF1F80B582B00C
:1015800000AF786039607B68012B15D13B680C4A4D
:10159000934211D10B4A0C4B11001800FFF70EFFBC
:1015A0000A4A0B4B11001800FFF708FF094A0A4BC3
:1015B00011001800FFF702FFC046BD4602B080BD13
:1015C000FFFF0000481000008CF2FF1F4C100000CD
:1015D00098F2FF1F04300000A4F2FF1F80B500AF97
:1015E000034B19000120FFF7C9FFBD4680BDC0466F
:1015F000FFFF000080B500AF0F4B1B785A1CD1B223
:101600000D4A1170002B09D00C4B01221A600A4BB5
:101610001B78013BDAB2084B1A700BE062B6C04689
:1016200000F0BCF872B6C046034B1B78013BDAB23F
:10163000014B1A70BD4680BDB4F2FF1FB0F2FF1F10
:1016400080B582B000AF204B7B60204B3B60204BCD
:1016500000221A701F4B00221A7000F05DF91E4B19
:101660001B6800221A6000F037F97B68181C00F034
:1016700069FA194B1B681B685A425341DBB21A00C6
:10168000144B1A7062B6C04611E0134B1B681B68FE
:101690005A1E9341DBB21A000D4B1A700C4B1B788B
:1016A000DBB25A425341DBB21A000A4B1A70094BA3
:1016B0001B78DBB2002BE8D100F020F900231800E2
:1016C000BD4602B080BDC046CDCC4C3E000040427D
:1016D000B5F2FF1FB6F2FF1FCC5E0000B0B584B0BC
:1016E00000AF386079603B681C007B685B005D0878
:1016F0000022274B2000290000F0BCFD031E3CD037
:101700000022244B3868796800F0D2FD031E10D007
:101710000022204B3868796801F092FB02000B0030
:101720001000190000F070FC02000B00BA60FB60B2
:1017300027E00022184B3868796800F0AFFD031EDF
:101740000AD0002200233868796802F0E9FA020022
:101750000B00BA60FB6014E000220E4B3868796819
:1017600002F04AFD02000B001000190000F0C0FB5F
:1017700002000B00BA60FB6003E03A687B68BA6065
:10178000FB60BA68FB6810001900BD4604B0B0BD2C
:10179000000030430000E03F0000E0BF90B589B09A
:1017A00000AF4B4B1A685B6810001900FFF796FFFB
:1017B00002000B003A617B61454B9A68DB681000C0
:1017C0001900FFF78BFF02000B00BA60FB60404B73
:1017D0001A695B6910001900FFF780FF02000B0017
:1017E0003A607B6000223B4B3869796900F042FD2A
:1017F000031E15D0002200233869796900F058FDD6
:10180000031E08D01F23FC183869796900F0ACFD6D
:101810000300237008E01F23FB1800221A7003E066
:101820001F23FB18FF221A7000222A4BB868F968A0
:1018300000F020FD031E15D000220023B868F968CF
:1018400000F036FD031E08D01E23FC18B868F968A6
:1018500000F08AFD0300237008E01E23FB1800221D
:101860001A7003E01E23FB18FF221A700022194B86
:101870003868796800F0FEFC031E15D000220023B2
:101880003868796800F014FD031E08D01D23FC1889
:101890003868796800F068FD0300237008E01D23B4
:1018A000FB1800221A7003E01D23FB18FF221A7098
:1018B0001D23FB181A781E23FB1819781F23FB1809
:1018C0001B781800FFF7B8FDC046BD4609B090BDB3
:1018D000C8F0FF1F0000704080B500AF064B00222B
:1018E0001A70054B01225A60FFF714FE024B0122C9
:1018F0001A72C046BD4680BDB8F2FF1F80B500AF6A
:10190000044B1B78002B02D1024B01221A70C046F7
:10191000BD4680BDB8F2FF1F80B500AF244B01214A
:101920001800FFF717F880235B0101211800FFF76B
:1019300011F8204B01211800FFF70CF81E4B5A69D3
:101940001D4B802189030A435A611C4B5A691B4B6A
:1019500001210A435A61194B5A69184B02210A4363
:101960005A61134B00211800FFF722F880235B0116
:1019700000211800FFF71CF80E4B00211800FFF79C
:1019800017F80D4B9A680C4B802189030A439A6023
:101990000A4B9A68094B01210A439A60074B9A68DF
:1019A000064B02210A439A60C046BD4680BDC04630
:1019B000544000000410000000F10F4040F00F40C0
:1019C00090B583B000AF02003960FB1D1A70FB1D9B
:1019D0001B787F2B32D92F4AFB1D1B7819000F2350
:1019E0000B40083B9B0806339B00D31804331B684D
:1019F000FA1D1278110003220A40D200FF21914003
:101A00000A00D2431A4011003B689B01FF221A4092
:101A1000FB1D1B78180003230340DB009A401D4880
:101A2000FB1D1B781C000F232340083B9B080A4327
:101A300006339B00C31804331A6027E0164AFB1DC7
:101A40001B785BB29B08C0339B009B58FA1D127831
:101A5000110003220A40D200FF2191400A00D24324
:101A60001A4011003B689B01FF221A40FB1D1B78A6
:101A7000180003230340DB009A400748FB1D1B7836
:101A80005BB29B080A43C0339B001A50C046BD4658
:101A900003B090BD00ED00E000E100E080B582B051
:101AA00000AF78607B685A1E80235B049A4201D3A2
:101AB000012310E00A4B7A68013A5A6001235B4225
:101AC00003211800FFF77CFF054B00229A60044BAE
:101AD00007221A6000231800BD4602B080BDC04630
:101AE00010E000E080B500AFBFF34F8FC046BFF3FA
:101AF0006F8FC0460C4B1A680C4B1B689A4202D37E
:101B0000094B00221A60084B1B68591C064A1160D9
:101B1000002B05D172B6C046FFF76CFD62B6C04619
:101B2000C046BD4680BDC046C8F2FF1FCCF2FF1FB5
:101B3000EFF3008001B5024B180000F059F8C046E1
:101B4000E51A000080B584B000AF7860244B1B68B4
:101B5000180001F039F9031C7968181C00F0ECFD3D
:101B6000031C181C00F0E8FB0300FB60FA688023EC
:101B70005B049A421AD3F86801F026F9031C19494C
:101B8000181C00F00FFC031C181C00F0D5FB030010
:101B90005A1C154B1A60144B1B681900F86800F0AA
:101BA000C7FA03001800FFF779FF06E00E4B00228A
:101BB0001A60FB681800FFF771FF0C4B00221A60D7
:101BC00005235B4203211800FFF7FAFE02235B4264
:101BD00003211800FFF7F4FEC046BD4604B080BDE7
:101BE000C4F0FF1FFFFF7F4BCCF2FF1FC8F2FF1FA7
:101BF00003B488B004A0C0460690012000060790F8
:101C00000620C0438646704703BC8047BFF36F8FF2
:101C100000DFFEE7C046C04604207146084202D0FD
:101C2000EFF3098001E0EFF3088081690239087859
:101C3000002800D004E008B003BC80F30088084707
:101C4000FEE7C0460022835E70B504000D0001333C
:101C500004D124220549064800F066F86368002D87
:101C600002D0E268136070BD2269FBE7CD59000025
:101C70004C59000070B50D0004001600FEF7BCFDC5
:101C80006B1C07D000212000FEF7D6FD310020009C
:101C9000FEF7CCFD70BD10B50222FFF7EBFF10BDC3
:101CA00070B50D0004001600FEF7A6FD6B1C0BD0EE
:101CB00031002000FFF7C6FF01212000FEF7BCFD28
:101CC00000212000FEF7B2FD70BD10B50022FFF725
:101CD000E7FF10BD10B5024800F004F810BDC04683
:101CE000D05E0000036870B5DB6804009847636845
:101CF0005A682368002A02D19B68984770BD5B68C8
:101D00001568984763682D1A5A68002D07DC91689A
:101D100059601B68002BEAD050689847E7E72368B2
:101D200010681B699847E9E770B50D0016000400BC
:101D300000F066F833002A0021000348FEF7F8FDA2
:101D4000FEF79AFD70BDC046EC5E000010B50400C1
:101D5000431C0CD110BD9C4208D120008968FEF7BD
:101D6000F9FD00212000FEF723FEF3E70C310022ED
:101D70008B5E5A1CEFD1024800F032F8EAE7C04609
:101D80004E5F000010B5884208D0431C06D04B1CA3
:101D900006D0044800F024F801214942080010BD93
:101DA0000100FBE71D5F000000228B5E5A1C01D181
:101DB000180002E0834201D1486870470C31F3E714
:101DC00010B50400431C07D0FFF7EEFF0400431CCE
:101DD00002D1024800F004F8200010BD2E5F000080
:101DE0000FB407B504A901C90191FEF777FD0120E1
:101DF00002F0A6FEEFF31083012098437047000025
:101E000070B5FFF7F7FF050072B60F4C2368002B83
:101E100004D1013343400D4ADBB213702368013310
:101E200004D135220A490B48FFF77EFF2368002BB7
:101E300006D0002D04D0392205490748FFF774FF6A
:101E400023680133236070BDDCF2FF1FD8F2FF1F4F
:101E50005F5F0000B15F0000D75F000010B50C4C61
:101E60002368002B13D0FFF7C5FF002804D04A22B7
:101E700008490948FFF758FF2368013B236023689E
:101E8000002B04D1054B1B78002B00D162B610BD8E
:101E9000DCF2FF1F5F5F0000D75F0000D8F2FF1F7A
:101EA00070B50400FFF750FA0500FFF74DFA401B2C
:101EB000A042FAD370BDFA2310B59B005843FFF738
:101EC000EFFF10BD10B500F00DF810BD30B585B0B6
:101ED0006D461824201C291CABBE041C200005B034
:101EE00030BD0000014B18687047C046E0F0FF1F8E
:101EF0003F4AF8B5474690464B005B0D9844CE46A6
:101F0000424680B505000C000E000700132A35DCA0
:101F1000002A21DB374B134199460B40034315D070
:101F2000354A364B00F08CFF0022002300F0B6F952
:101F3000002809D0002C04DD8026434676031E418C
:101F400036194B4600279E433D00340028002100EF
:101F5000C0BCB946B046F8BD274A284B00F070FF18
:101F60000022002300F09AF90028EDD0002C38DB85
:101F7000002700262C43E7D0214EE5E7332A0ADD6F
:101F80008023DB009845E1D102000B0000F058FFF0
:101F900005000C00DAE71B4A9446012263445242D2
:101FA000DA4091460242D1D0134A144B00F048FF68
:101FB0000022002300F072F90028C5D0002C0BDDB0
:101FC0004346142B0BD03422D21A012393405D19BF
:101FD000BD420AD22F00661C4B469F43B4E7661CE5
:101FE000FAE7802600273606AEE72F00F4E7C04662
:101FF00001FCFFFFFFFF0F009C7500883CE4377E6B
:102000000000F03FEDFBFFFF434AF8B5474690461E
:102010004B005B0D9844CE46424680B505000C004F
:102020000E000700132A25DC002A4CDB3B4B134132
:1020300099460B40034317D0394A3A4B28002100F8
:1020400000F0FEFE0022002300F028F9002809D04D
:10205000002C04DA8026434676031E4136194B468F
:1020600000279E433D00340028002100C0BCB94633
:10207000B046F8BD332A0CDD8023DB009845F3D150
:1020800002000B002800210000F0DAFE05000C0021
:10209000EAE7254A9446012263445242DA409146D7
:1020A0000242E1D01E4A1F4B2800210000F0C8FE6A
:1020B0000022002300F0F2F80028D3D0002C1ADB15
:1020C0004B469F43CEE7164A164B2800210000F0EE
:1020D000B7FE0022002300F0E1F80028C2D0002C57
:1020E00002DB00270026BDE76400640800272543C3
:1020F000B8D00E4EB6E74346142B09D03422D21A7C
:10210000012393405D19BD4204D22F00661CD7E71E
:10211000661CD5E72F00D3E701FCFFFFFFFF0F0090
:102120009C7500883CE4377EEDFBFFFF0000F0BFAC
:10213000002243088B4274D303098B425FD3030A06
:102140008B4244D3030B8B4228D3030C8B420DD319
:10215000FF22090212BA030C8B4202D312120902A7
:1021600065D0030B8B4219D300E0090AC30B8B42E5
:1021700001D3CB03C01A5241830B8B4201D38B0393
:10218000C01A5241430B8B4201D34B03C01A524138
:10219000030B8B4201D30B03C01A5241C30A8B427B
:1021A00001D3CB02C01A5241830A8B4201D38B0266
:1021B000C01A5241430A8B4201D34B02C01A52410A
:1021C000030A8B4201D30B02C01A5241CDD2C3097C
:1021D0008B4201D3CB01C01A524183098B4201D3F8
:1021E0008B01C01A524143098B4201D34B01C01AE3
:1021F000524103098B4201D30B01C01A5241C3085B
:102200008B4201D3CB00C01A524183088B4201D3C9
:102210008B00C01A524143088B4201D34B00C01AB5
:102220005241411A00D20146524110467047FFE721
:1022300001B5002000F006F802BDC0460029F7D025
:1022400076E770477047C0468446101C62468C464D
:10225000191C634600E0C0461FB501F0F1FC0028E0
:1022600001D40021C8421FBD10B501F03BFC404223
:10227000013010BD10B501F0E3FC002801DB0020A7
:1022800010BD012010BDC04610B501F0D9FC0028DA
:1022900001DD002010BD012010BDC04610B501F0C9
:1022A0005DFC002801DC002010BD012010BDC046EF
:1022B00010B501F053FC002801DA002010BD012008
:1022C00010BDC0468446081C6146FFE71FB500F0FC
:1022D000E9F9002801D40021C8421FBD10B500F063
:1022E0006DF94042013010BD10B500F0DBF9002857
:1022F00001DB002010BD012010BDC04610B500F06C
:10230000D1F9002801DD002010BD012010BDC0461C
:1023100010B500F07BF9002801DC002010BD012081
:1023200010BDC04610B500F071F9002801DA002098
:1023300010BD012010BDC0469E2110B5C905041C6A
:10234000FFF7F0FF002803D1201C00F0D7FC10BDE0
:102350009E21201CC90500F009FB00F0CFFC802362
:102360001B069C466044F2E770B500220C4B04004B
:102370000D00FFF79DFF002804D12000290002F086
:10238000CDFA70BD064B00222000290001F034FF79
:1023900002F0C4FA80231B069C466044F1E7C04665
:1023A0000000E041F0B54F464646D6464502C0B56E
:1023B00047000C1C6D0A3F0EC60F002F66D0FF2F82
:1023C0006CD00023EA00802599469A46ED04154317
:1023D0007F3F60026100430A9846090EE40F00291E
:1023E00048D0FF2910D08022D800D2040243904662
:1023F00000207F394A4633007F1A02436C4992001D
:102400008A586340DBB29746002B6DD10220FF3F14
:1024100033E0002398462600454682465346022B69
:1024200000D17FE0032B00D194E0012B17D03800BE
:102430007F3000285FDD6B0704D00F232B40042B77
:1024400000D004352B0103D538005A4B80301D4095
:10245000FE2867DCAD016D0AC0B202E01E0000205C
:102460000025C0052843F6073043E0BCBA46B14614
:10247000A846F0BD002B2BD101204A4633004E491F
:10248000024392008A586340DBB29746002D13D175
:1024900004239946033B00279A469AE7002D05D16D
:1024A00008239946063BFF279A4692E70C23994654
:1024B000093BFF279A468CE7280002F01DFB762790
:1024C000431F9D4000237F4299469A463F1A80E76A
:1024D000180002F011FB4246431F76219A40494200
:1024E000091A9046002085E7FF21032082E71E009D
:1024F000FF200025B5E701231B1A1B2BAFDC9E37FD
:102500002900BD40D9406A1E95410D436B0704D098
:102510000F232B40042B00D004356B0144D5012040
:1025200000259EE7FF2000259BE780250026FF2051
:10253000ED0396E7002398468020C003054209D0AA
:102540004346034206D1454605436D022600FF205F
:102550006D0A86E78020C00305436D02FF206D0AE7
:102560007FE741466A014801824219D21B210025BA
:10257000013F012614006D005200002C01DB904247
:1025800001D8121A354301390029F3D1501E824176
:1025900038007F301E001543002800DD4BE7AAE716
:1025A0001A210125121AE4E7AD0100206D0A58E74F
:1025B000EC5F0000FFFFFFF72C60000070B54200E9
:1025C0004E024C0045026D0A120EC30F760A240E0D
:1025D000C90FFF2A0FD0FF2C11D00120A24200D03A
:1025E00070BDB542FCD18B420DD0002AF8D1280035
:1025F000451EA841F4E70120002DF1D1EBE70120B1
:10260000002EEDD1E9E70020EAE7C046F0B5420030
:1026100046024D024C00C30F760A120E6D0A240EBC
:10262000C80FFF2A1FD0FF2C10D0002A1FD17142E3
:102630007141002C01D1002D1ED000290ED1834202
:102640001ED00221581E08400138F0BD002D26D1B1
:10265000002AF4D1714271410029F0D00028F4D150
:1026600001204042F1E7002E19D1FF2CEED0002CC2
:10267000E5D1002DE3D1E4E70020002EE5D0E0E72E
:10268000A24205DCEADBAE4202D8E7D30020DCE759
:10269000414241414842022108400138D5E7022029
:1026A0004042D2E7F0B5420046024D024C00C30F53
:1026B000760A120E6D0A240EC80FFF2A0DD0FF2CC9
:1026C0000FD0002A23D171427141002C0FD1002D6F
:1026D0000DD10020002E14D00DE0002E10D1FF2CC3
:1026E00015D1002D0CD1002A03D17142714100296E
:1026F00008D1834210D00221581E0840013800E062
:102700000220F0BD0028FCD101204042F9E7002C56
:10271000EFD1002DEDD1EEE7A24205DCF2DBAE42B7
:1027200002D8EFD30020ECE7414241414842022168
:1027300008400138E5E7C046F8B557464E464546DD
:10274000DE464402E0B545000F1C640A2D0EC60F9C
:10275000002D47D0FF2D4DD0002380209A469B4668
:10276000E400C00404437F3D7802430A99467A009E
:10277000FB0F9846120E4B4644D0FF2A11D0D800CA
:102780008023DB040343994600207F3AAD18474677
:1027900053467740691C0F2B3FD8724A9B00D35891
:1027A0009F46FF35002B00D079E0524602231A43A2
:1027B00092460220EBE747464C4683465B46022B97
:1027C00028D0032B00D1C6E0012B4FD100200024DC
:1027D000C005FF0720433843F0BCBB46B246A946BC
:1027E000A046F8BD002C71D104239A46033B002576
:1027F0009B46B9E7002C63D108239A46063BFF2588
:102800009B46B1E7002B50D1524601331A43924602
:102810000120BCE7FF200024DAE74846260C240408
:10282000220C0404240C4B4620001B0C5043744320
:102830005A435E431219030C9B189C4203D9802211
:1028400052029446664400041A04000C12189401C3
:10285000601E84411B0C920E9B1914439B011C4368
:102860001B0172D50120630804401C4308007F301F
:1028700000283CDD630704D00F232340042B00D045
:102880000434230103D580310800374B1C40FE2857
:10289000C0DCA401640AC0B29AE737008EE7524652
:1028A00003231A439246032071E7484602F024F9B5
:1028B0004A46431F9A402D1A91460020763D66E70E
:1028C0000C239A46093BFF259B464DE7200002F06A
:1028D00013F97625431F9C4000236D429A469B4680
:1028E0002D1A41E780240027FF20E40370E701232D
:1028F0001B1A1B2B00DD69E79E3120008C40D8405D
:10290000631E9C410443630704D00F232340042B20
:1029100000D0043463011AD50120002458E7802038
:10292000C003044209D04B46034206D14C4604433F
:1029300064024746FF20640A4AE78020C00304433C
:1029400064023700FF20640A42E729008EE7A401F1
:102950000020640A3CE78020C00304436402FF2097
:10296000640A35E76C600000FFFFFFF7F0B54646EC
:10297000D6464F4643025B0ADA0094464A02C0B587
:102980004400560A051CB046240E4E0092091F0052
:1029900020009246ED0F360EC90FFF2E00D17FE0CA
:1029A000012251408D4251D0A21B9146002A00DCE9
:1029B0007EE0002E00D199E0FF2C00D18CE0802336
:1029C0005246DB041A4392464A4601231B2A08DC7E
:1029D00053462021D340891A52468A40511E8A41CB
:1029E00013436246D31A5A0100D4F3E09B019E09B7
:1029F000300002F081F805388640844200DDF7E0BF
:102A00003200041B20200134E240041BA6403300A6
:102A10005E1EB341002413435A0704D00F221A400C
:102A2000042A00D004335A0100D4D6E0621CFE2CE4
:102A300000D1DAE09B015F0AD0B2C0053843ED0750
:102A40002843E0BCBA46B146A846F0BDA21B914659
:102A5000002A63DD002E00D199E0FF2C3CD08023BA
:102A60005246DB041A4392464A4601231B2A08DCDD
:102A700053462021D340891A52468A40511E8A412A
:102A8000134363445A0100D4A4E00134FF2C00D165
:102A9000ABE0012297491A405B080B401343BBE7A8
:102AA000002A32D08D4235D0FF2252429146A144B5
:102AB0004A46002A51D0301B002C00D09CE06346CF
:102AC000002B00D1DFE00138002800D1F7E0FF2E15
:102AD00000D099E00D004346002B00D185E080270F
:102AE000FF031F437F02FF207F0AA6E75246002A0A
:102AF00074D0012252429046C1444A46002A00D175
:102B0000C8E0FF2C00D05FE7E6E701225140A94270
:102B100000D049E7FF2252429146A1444A46002A8A
:102B200043D0311B002C00D18CE0FF2E00D192E06D
:102B300080236246DB041A43944601231B2909DCE7
:102B4000202063466246CB40411A8A401100481E4D
:102B500081410B433400534494E7FE22661C324209
:102B600064D1002C00D082E06346002B00D1ABE0A2
:102B70005346002B00D160E7634652469B1A5A0128
:102B800000D4AAE0634652460D00D31A44E75246E9
:102B9000002A23D0012252429046C1444A46002ACC
:102BA00075D0FF2C00D05FE796E7FE260134264261
:102BB00053D1002872D16346002B00D193E05346D5
:102BC000002B00D139E7634400245A0102D54A4A58
:102BD000013413405A0700D020E7DB08FF2C00D156
:102BE0007AE75B025F0AE0B227E7FF20002724E7CD
:102BF000414B241A33400FE7FF2E00D16AE78023B0
:102C00006246DB041A43944601231B2809DC202476
:102C100063466246C340201A82401000441EA04111
:102C2000034352460D003400D31ADCE66346524695
:102C30009E1A730117D4002E00D0D9E6002500207B
:102C40000027FAE66346002B44D0013900294CD016
:102C5000FF2E00D071E743463EE7FF2CC5D0524619
:102C600062445308B6E763460D00D61AC0E66246D2
:102C7000002A16D15346002B00D02BE780270025D1
:102C8000FF20FF03D9E60D0043463400A6E7534674
:102C90006344F7E6634652469B1AA4E66246002A5E
:102CA000D9D05246002A00D116E78022D20313421F
:102CB00000D111E74046104200D00DE70AE7524626
:102CC0000D003400D31A8EE65346002B08D00D00B9
:102CD0004746B2E64346340080E7002B00D079E750
:102CE00000250027A9E64746A7E65346340063447B
:102CF000C8E6C046FFFFFF7DFFFFFFFB4102420029
:102D0000C30F490A0020120E7E2A03D99D2A02D938
:102D1000094A98187047802000040143952A07DC6F
:102D20009620821AD1404842002BF3D10800F1E7E7
:102D3000963A9140F7E7C046FFFFFF7F70B5002845
:102D400013D0C317C5185D40C40F280001F0D4FE8E
:102D50009E2301001B1A962B0FDC082801DD083981
:102D60008D406D026D0AD8B202E0002400200025DB
:102D7000C0052843E407204370BD992B0BDD0522D5
:102D80002E00121AD64002001B3295402800451E24
:102D9000A84135000543052901DD4A1F95402A0059
:102DA000084E3240680709D00F202840042805D07B
:102DB0000432500102D59F2332405B1A9201550A1A
:102DC000D8B2D5E7FFFFFFFB70B5051E0ED001F0AE
:102DD00093FE9E2304001B1A962B0CDC082801DDB1
:102DE000083CA5406D026D0AD8B201E00020002524
:102DF000C005284370BD992B09DD020029001B3254
:102E000091404A1E91410522121AD5400D43052CCE
:102E100001DD621F95402900084E31406A0709D044
:102E20000F202840042805D004314A0102D59F23F1
:102E300031401B1B89014D0AD8B2D9E7FFFFFFFBC8
:102E4000F0B54F46D64646460D0001001800C0B505
:102E500017002B035A0A4B0F1343CA009146020373
:102E60006E004100520AEC0F7D0F1543760D490D9F
:102E7000C00F8246AC46FF00721A844200D198E02F
:102E8000002A00DC81E0002900D1B6E0C9498E4269
:102E900000D172E180212800090408438446382AC1
:102EA00000DD5EE11F2A00DDEEE1202039006546ED
:102EB000801A8740D14085400D4339004F1EB941EB
:102EC0006746D7402943DB1B4A46551AA945894125
:102ED00049425B1A984643461B0200D4CCE0434665
:102EE0005B025B0A98464346002B00D12CE140462A
:102EF00001F002FE01000839202228004346521A40
:102F00008B40D0408D4003438E4200DD17E18E1B85
:102F1000721C1F2A00DDA7E1202118002E00891A4B
:102F20008D408840D640D340691E8D41304398463D
:102F3000002605436B0709D00F232B40042B05D037
:102F40002B1DAB42AD416D42A8441D0043461B0200
:102F500000D494E0974B721C9A4200D19DE0414608
:102F6000954BED0819400B00520549075B022943B8
:102F70001B0B520D12051343E407234308001900ED
:102F8000E0BCBA46B146A846F0BD002A43D08A1B31
:102F9000002E00D02AE14C461C4300D1D1E1541E42
:102FA000012A00D11FE2834DAA4200D172E2220021
:102FB00023E1002A00DC98E0002942D07D498E42BE
:102FC00000D1DAE080212800090408438446382A29
:102FD00000DD29E11F2A00DC87E111006546203968
:102FE000CD40202A04D040206146821A91400F43F0
:102FF00039004F1EB9410D431BE12900394300D16F
:10300000B5E0511E012A00D1ABE16A48824200D1ED
:10301000B2E10A0043E76949751C0D4200D0CFE0D8
:10302000002E00D093E14946194300D1D1E1614619
:10303000394300D0E3E149465807C9080143DB089A
:1030400026E02900394300D191E0511E012A05D024
:103050005848824200D18FE10A00B8E73D004D4454
:103060004D45894163449846494288444346022677
:103070001B0200D5EBE0013E6B0700D05CE7434646
:10308000E9085A0711433200DB084A48824221D03E
:103090001B0352051B0B520D6CE70023002169E74F
:1030A0002A003A4369D04A465807D108DA088023F3
:1030B0001B0308431A4207D02900ED081D4203D123
:1030C0002A00FF0848073843430FC1005B07C908BF
:1030D000194313000A001A4300D113E2802212039D
:1030E00013431B03334A1B0B44E7002A4BD08A1BB4
:1030F000002E00D1E7E02F48814200D195E18020E9
:1031000000040343382A00DD43E11F2A00DDDBE130
:1031100020201D004E46801A8540D64035434E463D
:1031200086403000D340461EB0419C440543ED1913
:10313000BD429B415B42634498460E007FE01E4ABD
:10314000761A13409846F5E6280001F0D5FC0100F8
:1031500018311F2900DCCFE62B00083883400025FA
:10316000D2E662463A4311004F1EB941ACE64946E9
:103170005807C9080143DB0887E749465A07C908C9
:103180001143DB08A6E70D49701C084200D0BBE0E4
:10319000002E00D014E14946194300D175E1290001
:1031A000394300D07EE149465807C9080143DB088E
:1031B0006EE7C046FF070000FFFF7FFFFE0700002D
:1031C0004946CD1B6146581AA9458941494288465E
:1031D00001004046091A8846090200D5A6E041468A
:1031E000294300D07FE60023002451E7C74CA142C9
:1031F00000D1C7E0802424042343382A54DC1F2A4A
:1032000000DDCCE020244846A41A1D004E46A04014
:10321000D640A5400400D34062463543661EB44103
:10322000D31A9C46254344E062463A4315006F1E7C
:10323000BD414D444D4589414942884698444346E5
:103240001B0200D418E7B14B01369E4249D04246DA
:10325000AF4B01211A4013006A080D401543D907EE
:103260005B0898460D4365E618001F3EF040202A93
:1032700003D040218A1A93401D43691E8D410023CB
:10328000002698460543F7E6110065462039CD40F3
:10329000202A04D040206146821A91400F43390011
:1032A0004F1EB94129430FE64A4613431D006B1ECA
:1032B0009D417D1BAF429B4162465B42D31A9846BB
:1032C00054460E0007E64846184300D1B3E0501EAE
:1032D000012A00D10DE18D4DAA4200D1A5E00200E6
:1032E00010E732000023002144E620213800891A2B
:1032F00065468F408D40D040791E8F4105433D4348
:103300006746D740DB1994E7804A904200D1ECE051
:103310003900494449459241634452429B18DD07B4
:1033200049085B08984606000D43A5E64A46BD1AC3
:10333000AF42894162464942D31A5B1A98465446C5
:10334000D1E56C07F9082143EB0804009DE64A46E5
:103350001A4375D16146394314D1802300241B03DD
:10336000BCE64A46D51BA9458941624649429B1A9B
:103370005B1A98460126AEE54A46D1085A07114322
:10338000DB08A7E66346F9085A0754461143DB08F1
:10339000A0E64A4613431D006B1E9D41C7E614007C
:1033A0001E00203CE640202A05D04024A21A93406B
:1033B0004A461A4391464D466B1E9D41354378E778
:1033C0004A461A4300D06BE66B07F9081943EB082D
:1033D00080E66146394354D06346F9085C072143CF
:1033E000DB08040054E64A46BD1AAF4289416246F2
:1033F0004942D31A5B1A9846040001266BE54A46F7
:10340000D51BA9458941624649429A1A521A9046EB
:10341000120232D54A46BD1AAF428941624649423C
:10342000D31A5B1A9846040084E56346F9085A07E4
:103430001143DB084EE6F90868070143EB0824E670
:1034400062463A4300D198E64A46D1085A071143EA
:10345000DA0880231B031A4208D06046C5081D42C3
:1034600004D154462A00F908430719434B0FC900F9
:103470005B07C908194313002CE64146294300D0D5
:10348000FAE500230A00002402E66B07F908194355
:10349000EB08FDE56346F9085B0719436346040042
:1034A000DB0817E63D004D4463444D45894198468D
:1034B0004942884443461B0200D4DDE54246144B92
:1034C00001261A409046D7E510001E002038C6405D
:1034D000202A05D04020821A93404A461A4391463A
:1034E0004D466B1E9D41354321E60200002300211D
:1034F00040E54A46D519BD42894163449846494250
:103500008844B3E50021014A0B0033E5FF070000C2
:10351000FFFF7FFFF0B557464E464546DE46E0B515
:10352000814605000C03480092461F0085B0240B1D
:10353000400DCE0F002859D0874B984200D198E01B
:103540006B0FE4001C4380231B0423439846834BEA
:10355000ED009B4600239946834400933C037B0087
:103560005046240B5B0DFF0F002B67D07A4A934225
:1035700018D07A49420F8C46E40059461443802201
:1035800063441204CB1A14439B46C200002033004C
:103590007B409A464B460F2B00D9EFE070499B00C9
:1035A000CB589F466F4B52469C462243E344002A29
:1035B00000D095E0494602231943894600240220A1
:1035C000E5E700230024002552461B052343D207CC
:1035D00013432800190005B0F0BCBB46B246A9460B
:1035E000A046F0BD002400255B4BEDE74B4623438E
:1035F000984600D189E0002C00D1E0E1200001F0E4
:103600007BFA010002000B391D235B1A49461000AA
:10361000D940083884400B004D46234398468540E6
:1036200051483C03831A9B460023994600937B0034
:103630005046240B5B0DFF0F002B97D152462243BF
:1036400055D0002C00D1CAE1200001F055FA02004B
:103650000B3A1D2301009B1A52460839DA408C4070
:10366000144352468A40414B58449B4683440020B1
:103670008DE74B462343984640D108239946063BA5
:1036800000258346009369E7B246009B022BA9D030
:10369000032B00D111E2012B93D0354A5A44002A62
:1036A00000DC3CE16B0700D0A7E1ED084346DB01FD
:1036B00006D542462F4B1A4090468022D2005A44EB
:1036C0002D4B9A428EDC4346520558075C02054357
:1036D000240B530D78E7BA46A04615000090D4E7B6
:1036E0004A4603231A439146032052464FE7494670
:1036F0000123194389460024012048E70C239946F9
:10370000093BA0468346009328E7042399460023FB
:103710009B4601330025009320E7002380249A462E
:1037200000250D4B24034FE7802341461B0319421C
:1037300008D01C4206D11C432403BA461500064B90
:10374000240B41E78024434624031C432403B24650
:10375000014B240B38E7C046FF07000001FCFFFFC8
:10376000AC60000001F8FFFF0DFCFFFFF303000059
:10377000FF030000FFFFFFFEFE070000444500D2EC
:1037800016E100D111E101235B429C462E00404628
:103790000025E3442302140E1C431B0C994623040A
:1037A0001F0C1202494600920197FEF747FD0200E6
:1037B0007A430B04310C804619438A420BD901230A
:1037C0005B429C460919E0448C4204D88A4202D9E3
:1037D000831E98460919881A4946FEF72FFD0904E9
:1037E0008C4631046646019A090C4243030031437A
:1037F0008A4204D90919013B8C4200D811E1891A87
:103800004246009E12041A43330C1F00100C9046CF
:10381000029313043204160C32001B0C5A43039615
:103820007B4346437843170CBC469B1963449E4236
:1038300003D980267602B44660441E0C3018160464
:103840001B04360C9E19814200D29CE000D197E007
:10385000AE1B091AB54280414042081A844200D189
:1038600011E14946FEF7EAFC019A0B044243310C90
:10387000050019438A4207D90919013D8C4203D832
:103880008A4201D9851E0919881A4946FEF7D6FCD5
:1038900009048C4631046646019A090C4243030030
:1038A00031438A4207D90919013B8C4203D88A4225
:1038B00001D9831E0919039E891A32002D041D4364
:1038C000029F2B041B0C5A437B439C46280C464307
:1038D000130CB444634478439E4203D98026760295
:1038E000B44660441E0C12041B04120C30189B18C2
:1038F000814206D302D001231D43CEE6002B00D126
:10390000CBE661186E1EA14200D2A4E0814200D233
:10391000C9E000D1D9E03500EDE701256D42012174
:10392000891A382900DD4CE61F2900DC7FE01F23BF
:103930005B429A1A4346D340202904D04446654A44
:103940005A44944025436A1E954107222B43150093
:1039500000241D401A4200D1A1E00F2200241A4089
:10396000042A00D198E01A1D9A429B415B42E41858
:103970001300220200D48FE001230024002523E657
:10398000B54200D364E743465A1E009B9C466544FB
:103990001F009D429B415B421B19C9188C423AD2C1
:1039A000884263D860D0904652E7AA4200D9EAE63E
:1039B0004346DE0758086B081E43ED07EAE6484613
:1039C00001F09AF801000200153120321C2900DCB8
:1039D0001AE64B46083883400025984620E601F059
:1039E0008BF803001A00153220301C2A00DC30E668
:1039F0005446083B00229C4035E60F232B40042B05
:103A000000D152E605235B42AB429B4104355B4249
:103A1000ED0898444AE68C42C5D1AF42C0D99046E1
:103A200016E78A4200D8EAE6831E0919E7E62A4A21
:103A300028005A44434695409340C8406A1E954129
:103A4000444603432B43CC405A0792D00F221A40DE
:103A5000042A88D18DE73500814200D04BE7009AD7
:103A6000934200D047E718E6AE429CD902235B425E
:103A70009C46009BE0449C4665449D429B415B42C2
:103A80001B19C918E4E6154A5A44002A00DC44E729
:103A900001230025984409E665076402240BDB082E
:103AA0001D43002390E5009E023D7200B242BF41DB
:103AB0007F423C1909190092CEE780244346240333
:103AC0001C432403064B240B7EE5009A9A42EAD35A
:103AD0003500C4E73E0400001E040000FF030000A0
:103AE000FF070000F0B54F464646D646944691463D
:103AF0001A03120B184DC0B54C000F0392465A0022
:103B0000060080463F0B0120640DC90F520DDB0FEC
:103B1000AC420AD0AA4203D0944201D157450DD0FD
:103B2000E0BCBA46B146A846F0BD3D003543F7D1EA
:103B3000A242F5D1524665462A43F1D10120C8453B
:103B4000EED1994206D0002CEAD13E433000461E09
:103B5000B041E5E70020E3E7FF070000F0B54E467F
:103B600045465746DE4604001800E0B516001B0324
:103B70001B0B324D0F034A0099464300A446B04642
:103B80003F0B520DC90F5B0DC00FAA4229D0AB42AB
:103B900018D0002A2AD13C43A34665426541002B38
:103BA00002D14C46264327D0002D15D1814228D082
:103BB0000220013908400138F0BCBB46B246A94694
:103BC000A046F0BD4D462E432FD1002AEED13C43F6
:103BD00065426541002DE9D00028EDD10120404229
:103BE000EAE73D00254320D19342EBD0002BDDD105
:103BF0004C462643DAD1DBE75B460020002BDBD0C6
:103C0000D6E79A420ADCE7DB4F45D1D810D0002036
:103C10004F45D1D20029E1D00800CDE743425841B9
:103C20000223404218400138C6E702204042C3E761
:103C3000C445BDD80020C445BED2EBE7FF07000055
:103C4000F0B54E4645465746DE4604001800E0B53E
:103C500016001B031B0B314D0F034A00994643000E
:103C6000A446B0463F0B520DC90F5B0DC00FAA42D0
:103C700011D0AB4214D0002A2FD13C43A346654259
:103C80006541002B14D14C46264311D15B460020E0
:103C9000002B17D010E03D00254312D193421CD1D8
:103CA0004D462E430DD1002A04D13C436542654167
:103CB000002D0DD1814216D0022001390840013873
:103CC00000E00220F0BCBB46B246A946A046F0BDCB
:103CD0000028F7D101204042F4E7002BEAD14C46FE
:103CE0002643E7D1E8E79A4206DD434258410223E2
:103CF000404218400138E5E79A42E9DB4F45DBD8FE
:103D000006D000204F45DDD20029E3D00800D9E7D6
:103D1000C445D1D80020C445D4D2F5E7FF07000040
:103D2000F0B557464E464546DE46E0B598460C038C
:103D30004B000600924687B0240B5B0DCF0F002B83
:103D40006CD0DD4A934200D186E0420FE400144378
:103D5000802212041443D94AC50094466344009358
:103D6000002399469B46434642461E03D20F5B0002
:103D700050469046360B5B0D00D178E0CE4A934218
:103D80001DD0CE49420F8C4600996344F6008C4604
:103D9000164380229C44120463461643C20000204E
:103DA00000930099434601318C4649467B4001937C
:103DB0000F2900D97EE0C24B890059588F465246E0
:103DC000009B324300D056E1BB4900268C46634439
:103DD000494600930223194389460220E1E74346FE
:103DE00001933400150083465B46022B5ED0032B03
:103DF00000D1F3E1012B00D018E1002200240025BE
:103E0000019B12052243DB071A432800110007B06B
:103E1000F0BCBB46B246A946A046F0BD250005430E
:103E200000D141E1002C00D1ADE1200000F064FEA2
:103E3000010002000B391D2310005B1A3100350010
:103E400008388440D94085400C439E48831A00932B
:103E5000002399469B4686E70500254300D01CE1D8
:103E6000082200930223002491469B467BE752469A
:103E7000324300D10AE1002E00D176E1300000F09B
:103E80003BFE02000B3A1D2301009B1A52460839E3
:103E9000DA408E40164352468A40009B8949181AE0
:103EA00003008C466344002000937AE70024002539
:103EB000814AA5E72F0C2D042D0C2B00110C1204A8
:103EC000120C53439846130028007B4399464843FD
:103ED0004844834640460B00000C824658467B43CC
:103EE00050440293814506D99A4680235B02994645
:103EF000CA4453460293030C9B4643461B040004EA
:103F00001B0C9846030043440493330C99462B0042
:103F10003604360C7343984633007B439A464B462F
:103F20005D435F4343465544180C4019824503D90D
:103F300080235B029A465744050CEB1905934346D0
:103F40001D042D0C00044019250C2404240C27000A
:103F500057436A4390462A003B0C9A464A436143C2
:103F6000414451448344884503D980235B029846E9
:103F700042443F040B0C3F0C0904C9192700984622
:103F80004B4677435C436E435D433B0C9946A41913
:103F90004C4442440395A64204D980235B029846D0
:103FA00045440395029B3F045B441E0083428041CD
:103FB00023049846059B3F0C4744984676188E424A
:103FC0008941474440423D18A846934649428A46A3
:103FD000C3449F42BF4180458041039BDA449846D9
:103FE000534640427F420743240C934592418A4501
:103FF00089413F19DC0D049B75021D43681E8541F4
:104000005346524249420A43BF184744F60D7F02C5
:1040100035435A023C431543FB0100D4C1E0012162
:104020006A080D401543E2071543640826496144B8
:10403000002956DD6B0709D00F222A40042A05D03B
:104040002A1DAA42AD416D4264191500E30104D551
:1040500080211E4AC900144061441D4A914200DD7E
:1040600024E76207ED08640249051543240B4A0D55
:10407000C6E60197B8E6104A0320944663444A46D0
:10408000009303231A43914652468AE64946012388
:10409000194389460026012083E60C22009303235E
:1040A000050091469B465EE6042399460023009353
:1040B000013300249B4656E6FF07000001FCFFFF8A
:1040C000EC6000000DFCFFFFFF030000FFFFFFFEA0
:1040D000FE070000002380240025444A01932403A6
:1040E0008EE60120401A382800DD86E61F285BDDB9
:1040F0001F2223005242511ACB401900202803D01E
:104100003B4A6244944025436A1E95412A000A4373
:1041100007210D000024154011425BD00F2100241F
:104120001140042953D0111D914292415242A418CA
:104130000A0023024BD501220024002560E68023DB
:104140001B031C4209D01E4207D133431C034346C4
:104150001500240B254A019352E6802212031443D2
:104160002403224A240B01974AE600F0C5FC030011
:104170001A00153220301C2A00DC84E65646083B23
:1041800000229E4089E600F0B7FC010002001531D4
:1041900020321C2900DC4EE634000838002584401B
:1041A00053E6009B9C4641E71249220061442E00E1
:1041B0008D408A40C640691E8D4132432A43C44027
:1041C0005307B6D00F2111400429ACD1B1E76507E0
:1041D0006402240BD2081543002211E68022120348
:1041E00014432403014A240B0AE6C046FF070000DB
:1041F0003E0400001E040000F8B557464E464546F2
:10420000DE460400E0B51F0010000B03620F4E00F5
:10421000CD0F5B0A39031343490AE200440F2143DF
:10422000C24C91469246C0007A008046760D520DEF
:10423000FF0FA24200D1B4E001246740BB46BD425B
:1042400000D188E0B41AA446002C00DCB2E0002AB9
:1042500000D1C5E0B54A964200D18BE2802212041B
:1042600011436246382A00DDA1E11F2A00DD16E273
:1042700020270C00BF1ABC400200A0466446B8408C
:10428000E240444614430200501E82416046C14051
:1042900022435B1A49468C1AA145924152429B1A0D
:1042A000984643461B0200D417E143465B025B0A73
:1042B00098464346002B00D16CE1404600F01CFCC0
:1042C0000200083A202120004346891A9340C84042
:1042D00094400343964200DD57E1961B711C1F2951
:1042E00000DDCBE1202218002600521A94409040B5
:1042F000CE40CB40621E9441304398460026044392
:10430000630709D00F232340042B05D0231DA342AC
:10431000A4416442A0441C0043461B0200D4DFE0D9
:10432000824B01369E4200D1FBE04246804BE408BE
:104330001A401300710552075B0222431B0B490D03
:104340000905ED07194329431000F0BCBB46B246EE
:10435000A946A046F8BDB41AA446002C58DD002A90
:1043600000D19EE0714A964200D13BE180221204C6
:1043700011436246382A00DDC1E01F2A00DCBBE1A0
:104380000C00203AD44022006446202C04D0402760
:104390003F1BB940084380464446611E8C4114438C
:1043A000B1E00C0004432AD0BB46BD422DD0614C85
:1043B000A446B4446446002C5CD0941BA446002E52
:1043C00000D015E14D461D4300D1C3E1651E012C0F
:1043D00000D10CE2554EB44200D1F8E1AC460EE1FA
:1043E0000A00024300D136E12200013A012C00D13B
:1043F000C6E14E4CA44500D1F4E0944631E70124D7
:104400006740BB46BD4200D01CE74A4CA446B444BA
:104410006446002C00D1CFE0941BA446002E00D1AE
:104420005CE1424EB24200D1ECE1802636043343D7
:104430006446382C00DDB3E11F2C00DD38E2202675
:10444000361B1C00B4404F46A0466446E740444635
:104450003C434F46B7403E00771EBE41344366465C
:10446000F340C918241884429B415B4298461600C9
:1044700088444EE0304A741C144200D0D6E04A46CC
:104480001A43002E00D05BE1002A00D1A5E10A000A
:10449000024300D0BBE14A465907D2080A43DB0871
:1044A00027E00A00024300D174E12200013A012C06
:1044B00005D01E4CA44500D194E0944659E74844E9
:1044C000484592415B189846040052429044434646
:1044D00002261B0200D5C4E0013E630700D011E7AD
:1044E0004346B4465907E2080A43DB080F498C45A6
:1044F00040D061461B0349051B0B490D20E70143D2
:104500000C00611E8C414C444C45924152429046F5
:10451000984443461B02E0D5044B01369E4200D02E
:104520009FE03100002300220AE7C046FF07000099
:10453000FFFF7FFF01F8FFFFFE070000002A00D108
:1045400060E10A0002434DD04A465C07D20822438C
:104550008024DB082403234207D0CE08264204D15E
:104560005D463300C20849070A43510FD200D20802
:1045700049070A431100194300D1C8E1802109030A
:104580000B431B03D5491B0BDAE6D549B61A0B4082
:104590009846B5E6200000F0AFFA020018321F2A54
:1045A00000DC8FE6230008388340002492E60843AD
:1045B0000200501E82416DE6CA4C721C224200D09D
:1045C000ADE04A461A43002EB8D1002A00D158E186
:1045D0000A00024300D059E14A465907D2080A436B
:1045E000DB0886E74A465907D2080A43DB08C1E7D9
:1045F000BA4DAA4200D11EE180252D042B4364460A
:10460000382C5DDC1F2C00DDD0E0202567462D1BFB
:104610004E461C00FE40AC4034434E46AE40350092
:10462000FB406E1EB541C91A2C434EE04A46141A8F
:10463000A1459241524290465F1A3A004746D21B2A
:104640009046120200D58BE04246224300D030E66D
:10465000002300254DE74A465907D2080A43DB08E4
:1046600044E742469E4B61081A4013000122144061
:104670000C43DA075B089846144341E61A001F3ED4
:10468000F2401600202903D04022511A8B401C43CF
:10469000621E944100233443984600261DE70C0017
:1046A000203AD44022006446202C04D040273F1BEF
:1046B000B940084380464446611E8C412243E9E5E7
:1046C0004C4623431C00631E9C41041BA0429B419B
:1046D0005B42CB1A98465D461600E2E54E461E4305
:1046E00000D1AEE0661E012C00D1FDE07B4FBC4244
:1046F00000D107E1B4469BE664462022121B0C0061
:10470000944007009040A0466446421E9041624695
:10471000E7404446D1403C4304435B18F3E66F4C0A
:10472000A24200D1D5E048445B184845894149423E
:104730005B18DC0740085B08984616000443CCE68B
:10474000002A00D082E00A00024340D180230025E5
:104750001B0313E74B07C2081A435D46CB08C5E6A7
:104760004A46841AA0429241CB1A52429B1A98465A
:104770005D469EE54A465907D2080A43DB08F9E63A
:104780004A46141AA14592415B1A52429B1A984616
:10479000012686E54A465907D2080A43DB08A5E602
:1047A0004C4623431C00631E9C415BE665461E008D
:1047B000203DEE40202C05D040252D1BAB404C4623
:1047C0001C43A2465446631E9C4134437DE74B077D
:1047D000C2081A435D46CB08CCE60A00024300D16A
:1047E00036E74B07C2081A435D46CB0881E64A46C6
:1047F000841AA0429241CB1A52429B1A98465D46B7
:1048000001264EE54B07C2081A43CB08B2E64A46DA
:10481000141AA14592415F1A5242BA1A90461202E6
:104820006BD54A46841AA0429241CB1A52429B1A37
:1048300098465D4664E54B07C2081A435D46CB08BF
:1048400098E64B07C2081A43CB084FE60A0002431A
:1048500090D04A465C07D20814438022DB0812033A
:10486000134208D0CE08164205D1C00849070843B4
:1048700004005D463300610FE2004907D2080A4395
:1048800078E64B07C2081A43CB0832E648445B1867
:1048900048459241984652429044434604001B02C8
:1048A00000D41AE642460E4B01261A40904614E602
:1048B00066461F00203EF740202C05D04026361BC0
:1048C000B3404C461C43A2465446631E9C413C43A5
:1048D000C8E511000023002232E5C046FF070000B2
:1048E000FFFF7FFFFE0700004A46141884429241F2
:1048F0005B18984652429044E9E54246224300D173
:10490000A6E6EAE54B07C2081A43CB0832E60022C6
:104910000149130014E5C046FF0700000A0030B546
:10492000134C530009030500090B00205B0DD20F47
:10493000A34204DD0F48834202DD0F4BD01830BD87
:104940008020400301430D48C01A1F2808DD0C4891
:10495000C31AD9400B005842002AF0D11800EEE7E4
:10496000084CC540A446634499400B002B43F2E732
:10497000FE0300001D040000FFFFFF7F3304000062
:1049800013040000EDFBFFFF70B5002816D0C3171D
:10499000C5185D40C40F280000F0AEF8114A121A85
:1049A0000A2816DC03002E0015339E400B23181A2C
:1049B000C54053052D032D0B5B0D03E000240023A0
:1049C000002500261B052B43E40723433000190074
:1049D00070BD0B38854053052D0300262D0B5B0D54
:1049E000F0E7C0461E04000002004B00F0B50803CB
:1049F0005B0D3D4ECC0F400A510F5F1C0843D500A4
:104A000037420AD039495E18FE2E16DDFF230021F9
:104A1000DB050B43E0071843F0BD002B06D128430C
:104A200027D005218901490ADBB2F1E70543EDD022
:104A30008021C903FF230143EAE7002E1CDD920118
:104A400011004A1E9141C0006D0F014329434B07DD
:104A500048D00F230B40042B00D004318023DB040B
:104A60000B403FD0721CFE2ED0D08901490AD3B230
:104A7000CEE700230021CBE73200173222DB802172
:104A80001E2209040843921B1F2A1DDD02214942F0
:104A90008E1B0100F1400E00202A04D0144A9446D7
:104AA00063449840054329004D1EA9413143002627
:104AB0004B07CED180200B00C004012203400142ED
:104AC000D3D1AFE70023ACE70A498C462900634401
:104AD000D1409D400A00290098404D1EA941014344
:104AE0001143E4E733009DE7FE07000080FCFFFF71
:104AF000A2FCFFFF82FCFFFF1C2101231B04984244
:104B000001D3000C10391B0A984201D3000A08395E
:104B10001B09984201D30009043902A2105C401815
:104B20007047C046040302020101010100000000B9
:104B300000000000014B18687047C046E4F0FF1FFA
:104B4000084B10B50400002B02D0002100E000BF8C
:104B5000054B1868836A002B00D098472000FBF7AC
:104B6000C1FDC046000000008C610000F7B58B89D4
:104B700005000C001A075FD44A68002A04DC0A6C9E
:104B8000002A01DC0020FEBDE76A002FFAD00022D7
:104B900080212E682A601A0049010A400B4234D055
:104BA000606DA3895B0706D56368C01A636B002B31
:104BB00001D0236CC01A0200216A00232800E76A92
:104BC000B847A189431C06D12B681D2B31D82C4A2C
:104BD000DA40D3072DD50023636023692360CB041B
:104BE00005D5431C02D12B68002B00D16065616B99
:104BF0002E600029C6D023004433994202D02800F9
:104C000000F0DCF900206063BDE701232800216A81
:104C1000B847431CC5D12B68002BC2D01D2B01D037
:104C2000162B01D12E60ADE74023A2891343A38147
:104C3000A9E740230B43FAE70F69002FA2D00A68C7
:104C40000F60D21B019200229B0700D14A69A2602B
:104C5000019B002B00DC95E73A002800019B216AAC
:104C6000A66AB047002806DC40230120A289404202
:104C70001343A38187E7019B3F181B1A0193E7E7C2
:104C8000010040200B6970B505000C00002B02D11B
:104C90000025280070BD002804D08369002B01D1B5
:104CA00000F0A8F8144B9C421BD16C680C22A35E48
:104CB000002BEDD0626ED20704D49B0502D4A06D08
:104CC00000F05DF928002100FFF750FF636E05003A
:104CD000DB07DED4A3899B05DBD4A06D00F050F97F
:104CE000D7E7064B9C4201D1AC68DFE7044B9C42FE
:104CF000DCD1EC68DAE7C0464C6100006C61000072
:104D00002C610000010010B5002805D1054B0649B3
:104D1000186800F0EFF810BD044B1868FFF7B2FFF9
:104D2000F9E7C0468C610000854C0000E4F0FF1FED
:104D3000002310B5040003604360836081814366F3
:104D40001900C28103614361836108225C3000F075
:104D50002CF9054B6362054B2462A362044BE362AA
:104D6000044B236310BDC046355400005D54000061
:104D700095540000C154000010B5024900F0BAF883
:104D800010BDC046854C000070B568254A1E5543CD
:104D90000E002900743100F05BF9041E08D00021D8
:104DA0002A00016046600C30A060683200F0FDF817
:104DB000200070BD10B5024800F0E1F810BDC046FB
:104DC000F8F2FF1F10B5024800F0DAF810BDC04637
:104DD000F8F2FF1F10B5024800F0D1F810BDC04630
:104DE000F3F2FF1F10B5024800F0CAF810BDC0462C
:104DF000F3F2FF1F13B50400FFF7ECFFA369002BCC
:104E000002D0FFF7EFFF13BDA364E3642365134BE8
:104E1000134A1B68A2620193A34201D10123A3613B
:104E2000200000F01FF86060200000F01BF8A06078
:104E3000200000F017F800220421E0606068FFF70E
:104E400077FF01220921A068FFF772FF02221221D9
:104E5000E068FFF76DFF0123A361D2E78C610000DA
:104E6000794D0000F8B50700FFF7A4FF1F4B1E683F
:104E7000B369002B02D13000FFF7BCFF4836B4689D
:104E80007368013B04D53368002B22D03668F6E7FF
:104E90000C22A55E002D1AD12000154B5830E3607E
:104EA000656600F06BF8FFF78DFF200008222900EF
:104EB0002560A560656025616561A5615C3000F0D5
:104EC00074F86563A563A564E5642000F8BD6834E3
:104ED000D7E704213800FFF757FF041E3060D5D113
:104EE000FFF770FF0C233B60EFE7C0468C610000CA
:104EF0000100FFFFF7B504000600002701914834C8
:104F00006368A5680093009B013B009304D5246867
:104F1000002CF5D13800FEBDAB89012B08D90E223B
:104F2000AB5E013304D029003000019B9847074352
:104F30006835E8E770B500260C4D0D4C641BA410D5
:104F4000A64209D1002600F0F5FC0A4D0A4C641B6C
:104F5000A410A64205D170BDB300EB5898470136A6
:104F6000EEE7B300EB5898470136F2E748F1FF1F30
:104F700048F1FF1F48F1FF1F50F1FF1F70477047B6
:104F80007047C9B28218904201D10020704703785F
:104F90008B42FBD00130F6E7002310B59A4200D1D6
:104FA00010BDCC5CC4540133F8E70300821893426F
:104FB00000D1704719700133F9E7000070B50500A2
:104FC000002910D00C1F2368002B00DAE4182800F9
:104FD000FBF7A2FB1D4A1368002B05D16360146028
:104FE0002800FBF79DFB70BDA34208D9216860181B
:104FF0008342F3D118685B6841182160EEE71A001C
:105000005B68002B01D0A342F9D911685018A04267
:105010000BD120680918501811608342E0D118683C
:105020005B68411811605360DAE7A04202D90C2393
:105030002B60D5E721686018834203D118685B684C
:105040004118216063605460CAE7C046E0F2FF1F68
:10505000F8B50323CD1C9D43083506000C2D1FD247
:105060000C25A9421ED83000FBF756FB25490A68DB
:105070001400002C1AD1244F3B68002B04D12100CE
:10508000300000F0C5F938602900300000F0C0F9A8
:10509000431C2BD10C2330003360FBF741FB03E0B2
:1050A000002DDEDA0C2333600020F8BD23685B1B83
:1050B00019D40B2B03D92360E418256003E063683F
:1050C000A2420ED10B603000FBF72AFB2000072222
:1050D0000B30231D9043C21A9842E6D01B1AA350EE
:1050E000E3E75360EFE722006468C2E70323C41CD0
:1050F0009C43A042E1D0211A300000F089F9431C02
:10510000DBD1C7E7E0F2FF1FE4F2FF1FF7B51500A0
:1051100001938A680B690C000090934200DA130037
:1051200022002B6043321278002A01D001332B6019
:1051300023689B0602D52B6802332B602268062366
:1051400017001F401A4227D0230043331B785A1EF2
:1051500093412268920630D4220001990098089E5B
:105160004332B047431C25D0062320682A68E168F3
:1051700000250340042B03D18D1AEB43DB171D40A0
:10518000A3682269934201DD9B1AED180027BD42F6
:1051900020D1002010E00137E3682A689B1ABB4247
:1051A000D2DD2200012301990098089E1932B047F0
:1051B000431CF0D101204042FEBD3020E1184331B4
:1051C000087021005A1C45310978A2184332023375
:1051D0001170C1E72200012301990098089E1A323C
:1051E000B047431CE6D00137D1E70000F0B58BB0E3
:1051F00006920A0043320793059004920A7E0C003F
:10520000109B782A06D8622A08D8002A00D1C0E06C
:10521000582A52D026004236327022E010006338FD
:105220001528F7D800F07CFB16001F00F6FFF6FFEC
:10523000F6FFF6FF1F00F6FFF6FFF6FFF6FFA800E9
:1052400036009A00F6FFF6FFB900F6FF3600F6FFCB
:10525000F6FF9E0026001A684236111D1960136879
:1052600033700123A7E0086819680A1D05060BD5ED
:105270000D681A60002D03DA2D23049A6D42137015
:10528000614B0A27039332E00D681A604106F1D59D
:105290002DB2EFE70D681968081D18602E0601D5BC
:1052A0000D6803E06D06FBD50D68ADB2564B0A27BD
:1052B00003936F2A17D1082715E045310A70524A27
:1052C00003921A68216820CA1A60080650D5CB07D5
:1052D00002D52023194321601027002D03D120235C
:1052E00022689A4322602300002243331A706368C5
:1052F000A360002B03DB0422216891432160002D71
:1053000002D1049E002B0CD0049E28003900FCF72B
:1053100095FF039B013E5B5C33702B0005009F42B1
:10532000F3D9082F09D12368DB0706D56368226902
:10533000934202DC3023013E3370049B9B1B2361AC
:10534000079B210000930598069B09AAFFF7DEFE44
:10535000431C35D1012040420BB0F0BD202209682A
:105360000A4322602200782145321170274AA7E7BC
:105370004806ACD5ADB2AAE71A680D68101D496998
:10538000186013682E0601D5196002E06D06FBD582
:1053900019800023049E2361D2E71A68111D196049
:1053A0001668002130006268FFF7EBFD002801D08D
:1053B000801B6060636823610023049A1370BFE759
:1053C0002369320006990598079DA847431CC1D060
:1053D00023689B0715D4099BE0689842BCDA180043
:1053E000BAE72200012306990598079E1932B047B3
:1053F000431CAFD00135E368099A9B1AAB42F0DC3D
:10540000E9E70025F7E7C04690610000A1610000D0
:10541000002370B5064D040008002B60FBF740F92F
:10542000431C03D12B68002B00D0236070BDC04605
:10543000FCF2FF1F70B50C000E25495F00F054FA16
:10544000002803DB636D1B18636570BDA389024AE6
:105450001340A381F9E7C046FFEFFFFFF8B51F0037
:105460008B8905000C001600DB0505D50E23C95EEF
:105470000022022300F088F8A389054A280013407F
:10548000A38132000E23E15E3B0000F057F8F8BD27
:10549000FFEFFFFF70B50C000E25495F00F074F8B8
:1054A000A389421C03D1054A1340A38170BD802209
:1054B00052011343A3816065F8E7C046FFEFFFFF89
:1054C00010B50E23C95E00F04DF810BD30B51400C4
:1054D00005001A009BB0002C05DA8B230360012025
:1054E00040421BB030BD822368469B00838100236D
:1054F000009104919C4200D0631E02930593012306
:1055000069465B42CB8128001E9B00F0EDF8431CEE
:1055100001DA8B232B60002CE3D00023009A137058
:10552000DFE7000007B5009313000A0001000248FE
:105530000068FFF7CBFF0EBDE4F0FF1F70B504005D
:10554000080011001A000023054D2B60FBF71CF822
:10555000431C03D12B68002B00D0236070BDC046D4
:10556000FCF2FF1F002370B5064D040008002B60FD
:10557000FAF7EAFF431C03D12B68002B00D023600D
:1055800070BDC046FCF2FF1F70B50400080011009A
:105590001A000023054D2B60FBF75EF8431C03D176
:1055A0002B68002B00D0236070BDC046FCF2FF1FAB
:1055B00010B5884202D98B18984203D3002307E024
:1055C0008B5C8354013AFBD210BDCC5CC4540133D4
:1055D0009A42FAD1F8E7F8B507000D001600002945
:1055E00005D11100FFF734FD04002000F8BD002AAA
:1055F00003D1FFF7E3FC3400F7E700F089F92C0052
:10560000B042F2D231003800FFF722FD041EECD088
:1056100029003200FFF7C0FC29003800FFF7CEFC5C
:10562000E3E70000F0B58E6885B007000C00039238
:1056300001939E423CD890238A89DB001A4234D0E1
:105640000325096923685B1A0293636902985D4325
:10565000EB0F5D19019B6D1001331B18AB4200D994
:105660001D00530532D529003800FFF7F1FC061E56
:1056700009D10C233B6040230120A28940421343FF
:10568000A38105B0F0BD029A2169FFF785FCA389CB
:10569000144A1A4080231343A381029B2661F61803
:1056A00026606561019EED1AA560019B9E4200D9AE
:1056B000019E320003992068FFF77AFFA36800205B
:1056C0009B1BA36023689E192660DAE72A00380036
:1056D000FFF781FF061EE0D138002169FFF76EFC5D
:1056E000C7E7C0467FFBFFFFF0B5A1B003901D00E8
:1056F0008B890F0016001B0611D50B69002B0ED1EC
:105700004021FFF7A5FC38603861002805D10C2343
:10571000039A0138136021B0F0BD40237B61002360
:1057200008AC6361203363761033A37607953500A8
:105730002B78002B01D0252B47D1AB1B0593B5420D
:105740000CD0320039000398FFF76CFF431C00D1E6
:10575000AEE06269059B9446634463612B78002B3D
:1057600000D1A5E0012200235242626004A9543214
:1057700052186E1C2360E360A3601370A3650522BA
:1057800031785448FFF7FDFB751C00281FD12268B3
:10579000D30604D5532304A95B18202119701307DD
:1057A00004D5532304A95B182B21197033782A2BB5
:1057B00016D0350000210A20E3682A786E1C303AA2
:1057C000092A4ED9002911D117E00135B0E7414B24
:1057D0002268C01A0123834013432E002360CEE7C2
:1057E000079B191D1B680791002B01DB0B9304E03D
:1057F0005B42E3600223134323602B782E2B0AD1F4
:105800006B782A2B35D1079B02351A1D1B6807922E
:10581000002B2BDB0993304E032230002978FFF751
:10582000B0FB002806D04023801B8340226801354E
:10583000134323602978062228486E1C2176FFF73F
:10584000A0FB00283CD0264B002B25D10722079B2C
:1058500007339343083307936369049A9B18636182
:1058600065E74343350001219B18A6E701235B420E
:10587000D0E700230A201A000135636029786E1CE6
:105880003039092903D9002BC5D00992C3E7424317
:10589000350001235218F1E707AB00933A002100CD
:1058A000104B039800E000BF0490049B0133D3D158
:1058B000BB890D985B0600D42DE7012040422AE702
:1058C00007AB00933A002100064B0398FFF78EFCCC
:1058D000EAE7C046B2610000B8610000BC610000A8
:1058E000000000002556000070B5040008001100FB
:1058F0001A000023054D2B60FAF77CFE431C03D1F0
:105900002B68002B00D0236070BDC046FCF2FF1F47
:105910000B1F1B68181F002B01DA0B58C0187047AB
:1059200003B47146490840004900095E49008E44AD
:1059300003BC7047F8B5C046F8BC08BC9E4670472B
:10594000F8B5C046F8BC08BC9E4670476F626A2D29
:105950003E70696E20213D202850696E4E616D6554
:10596000294E43002F686F6D652F6A656E6B696EF7
:10597000732F6D6265645F6A656E6B696E732F77F6
:105980006F726B73706163652F626D5F77726170A8
:105990002F3439342F6D6265642D6F732F746172EB
:1059A000676574732F5441524745545F467265656D
:1059B0007363616C652F5441524745545F4B4C589B
:1059C000582F6770696F5F6170692E63002F686F71
:1059D0006D652F6A656E6B696E732F6D6265645FAE
:1059E0006A656E6B696E732F776F726B737061632C
:1059F000652F626D5F777261702F3439342F6D625D
:105A000065642D6F732F4255494C442F6D62656458
:105A10002F5441524745545F4B4C32355A2F544115
:105A2000524745545F467265657363616C652F54D8
:105A300041524745545F4B4C58582F6770696F5F10
:105A40006F626A6563742E68000000000000000049
:105A50000500000003000000040000000002000038
:105A60000300000008000000010200000300000025
:105A70000C00000000000000030000001000000007
:105A800001000000030000001400000002000000FC
:105A900003000000300000000001000003000000CF
:105AA00034000000010100000300000000100000AD
:105AB00000010000030000000410000001010000CC
:105AC00003000000081000000002000003000000B6
:105AD0000C1000000102000003000000481000004C
:105AE00000020000030000004C1000000102000052
:105AF000030000000420000000000000040000007B
:105B00000820000001000000040000000C2000003C
:105B1000020000000400000010200000030000004C
:105B2000040000002020000004000000030000002A
:105B300024200000050000000300000000300000E9
:105B4000000000000400000004300000010000001C
:105B50000400000008300000020000000400000003
:105B60000C300000030000000400000010300000B2
:105B700004000000040000001430000005000000D4
:105B8000040000005040000000010000030000007D
:105B900054400000010100000300000058400000D4
:105BA00000020000030000005C4000000102000051
:105BB000030000006040000000000000030000003F
:105BC0006440000001000000030000006840000085
:105BD0000500000003000000744000000200000007
:105BE00003000000784000000300000003000000F4
:105BF0007C4000000400000003000000FFFF0000E4
:105C0000FFFFFFFF000000000C20000000B0064076
:105C1000030000000400000000A006400200000095
:105C20001030000000C006400300000008300000F3
:105C300000C00640030000001830000000A006402D
:105C4000030000005C40000000C0064004000000AB
:105C50005440000000A00640040000000440000082
:105C600000B0064003000000FFFF0000FFFFFFFF41
:105C7000000000001020000000B0064003000000FB
:105C80000800000000A006400200000014300000E0
:105C900000C00640030000000C30000000C00640B9
:105CA000030000001C30000000A0064003000000BC
:105CB0005040000000A006400400000058400000D2
:105CC00000C00640040000000040000000B0064094
:105CD00003000000FFFF0000FFFFFFFF00000000C7
:105CE0002F686F6D652F6A656E6B696E732F6D62BD
:105CF00065645F6A656E6B696E732F776F726B7325
:105D0000706163652F626D5F777261702F34393413
:105D10002F6D6265642D6F732F7461726765747384
:105D20002F5441524745545F467265657363616CF9
:105D3000652F5441524745545F4B4C58582F70695A
:105D40006E6D61702E63002F686F6D652F6A656ED2
:105D50006B696E732F6D6265645F6A656E6B696EE9
:105D6000732F776F726B73706163652F626D5F77EE
:105D70007261702F3439342F6D6265642D6F732F0B
:105D8000746172676574732F5441524745545F467E
:105D90007265657363616C652F5441524745545F6A
:105DA0004B4C58582F70776D6F75745F6170692E0A
:105DB000630070776D20213D202850574D4E616D56
:105DC00065294E43002F686F6D652F6A656E6B699C
:105DD0006E732F6D6265645F6A656E6B696E732F9B
:105DE000776F726B73706163652F626D5F7772613D
